{
  "contractName": "HashedTimelockERC20",
  "abi": [
    {
      "anonymous": false,
      "inputs": [
        {
          "indexed": true,
          "internalType": "bytes32",
          "name": "swapId",
          "type": "bytes32"
        },
        {
          "indexed": false,
          "internalType": "string",
          "name": "secret",
          "type": "string"
        }
      ],
      "name": "claimedSwap",
      "type": "event"
    },
    {
      "anonymous": false,
      "inputs": [
        {
          "indexed": true,
          "internalType": "bytes32",
          "name": "swapId",
          "type": "bytes32"
        },
        {
          "indexed": true,
          "internalType": "address",
          "name": "sender",
          "type": "address"
        },
        {
          "indexed": true,
          "internalType": "address",
          "name": "receiver",
          "type": "address"
        },
        {
          "indexed": false,
          "internalType": "address",
          "name": "tokenContract",
          "type": "address"
        },
        {
          "indexed": false,
          "internalType": "uint256",
          "name": "tokenAmount",
          "type": "uint256"
        },
        {
          "indexed": false,
          "internalType": "bytes32",
          "name": "hashlock",
          "type": "bytes32"
        },
        {
          "indexed": false,
          "internalType": "uint256",
          "name": "timelock",
          "type": "uint256"
        }
      ],
      "name": "newSwap",
      "type": "event"
    },
    {
      "anonymous": false,
      "inputs": [
        {
          "indexed": true,
          "internalType": "bytes32",
          "name": "swapId",
          "type": "bytes32"
        }
      ],
      "name": "refundedSwap",
      "type": "event"
    },
    {
      "inputs": [
        {
          "internalType": "address",
          "name": "_receiver",
          "type": "address"
        },
        {
          "internalType": "address",
          "name": "_tokenContract",
          "type": "address"
        },
        {
          "internalType": "bytes32",
          "name": "_hashlock",
          "type": "bytes32"
        },
        {
          "internalType": "uint256",
          "name": "_timelock",
          "type": "uint256"
        },
        {
          "internalType": "uint256",
          "name": "_tokenAmount",
          "type": "uint256"
        }
      ],
      "name": "setSwap",
      "outputs": [
        {
          "internalType": "bytes32",
          "name": "swapId",
          "type": "bytes32"
        }
      ],
      "stateMutability": "nonpayable",
      "type": "function"
    },
    {
      "inputs": [
        {
          "internalType": "bytes32",
          "name": "_swapId",
          "type": "bytes32"
        },
        {
          "internalType": "string",
          "name": "_secret",
          "type": "string"
        }
      ],
      "name": "claim",
      "outputs": [
        {
          "internalType": "bool",
          "name": "",
          "type": "bool"
        }
      ],
      "stateMutability": "nonpayable",
      "type": "function"
    },
    {
      "inputs": [
        {
          "internalType": "bytes32",
          "name": "_swapId",
          "type": "bytes32"
        }
      ],
      "name": "refund",
      "outputs": [
        {
          "internalType": "bool",
          "name": "",
          "type": "bool"
        }
      ],
      "stateMutability": "nonpayable",
      "type": "function"
    },
    {
      "inputs": [
        {
          "internalType": "bytes32",
          "name": "_swapId",
          "type": "bytes32"
        }
      ],
      "name": "getSwap",
      "outputs": [
        {
          "internalType": "address",
          "name": "sender",
          "type": "address"
        },
        {
          "internalType": "address",
          "name": "receiver",
          "type": "address"
        },
        {
          "internalType": "address",
          "name": "tokenContract",
          "type": "address"
        },
        {
          "internalType": "uint256",
          "name": "tokenAmount",
          "type": "uint256"
        },
        {
          "internalType": "bytes32",
          "name": "hashlock",
          "type": "bytes32"
        },
        {
          "internalType": "string",
          "name": "secret",
          "type": "string"
        },
        {
          "internalType": "uint256",
          "name": "timelock",
          "type": "uint256"
        },
        {
          "internalType": "bool",
          "name": "claimed",
          "type": "bool"
        },
        {
          "internalType": "bool",
          "name": "refunded",
          "type": "bool"
        }
      ],
      "stateMutability": "view",
      "type": "function",
      "constant": true
    }
  ],
  "bytecode": "0x608060405234801561001057600080fd5b50611a6f806100206000396000f3fe608060405234801561001057600080fd5b506004361061004c5760003560e01c806311e84c71146100515780633da0e66e1461012c5780637249fbb614610251578063db452e2314610295575b600080fd5b6101146004803603604081101561006757600080fd5b81019080803590602001909291908035906020019064010000000081111561008e57600080fd5b8201836020820111156100a057600080fd5b803590602001918460018302840111640100000000831117156100c257600080fd5b91908080601f016020809104026020016040519081016040528093929190818152602001838380828437600081840152601f19601f82011690508083019250505050505050919291929050505061032b565b60405180821515815260200191505060405180910390f35b6101586004803603602081101561014257600080fd5b8101908080359060200190929190505050610a20565b604051808a73ffffffffffffffffffffffffffffffffffffffff1681526020018973ffffffffffffffffffffffffffffffffffffffff1681526020018873ffffffffffffffffffffffffffffffffffffffff1681526020018781526020018681526020018060200185815260200184151581526020018315158152602001828103825286818151815260200191508051906020019080838360005b8381101561020e5780820151818401526020810190506101f3565b50505050905090810190601f16801561023b5780820380516001836020036101000a031916815260200191505b509a505050505050505050505060405180910390f35b61027d6004803603602081101561026757600080fd5b8101908080359060200190929190505050610c81565b60405180821515815260200191505060405180910390f35b610315600480360360a08110156102ab57600080fd5b81019080803573ffffffffffffffffffffffffffffffffffffffff169060200190929190803573ffffffffffffffffffffffffffffffffffffffff16906020019092919080359060200190929190803590602001909291908035906020019092919050505061115a565b6040518082815260200191505060405180910390f35b6000826000151560008083815260200190815260200160002060070160009054906101000a900460ff161515146103ca576040517f08c379a00000000000000000000000000000000000000000000000000000000081526004018080602001828103825260148152602001807f7377617020616c726561647920636c61696d656400000000000000000000000081525060200191505060405180910390fd5b6000151560008083815260200190815260200160002060070160019054906101000a900460ff16151514610466576040517f08c379a00000000000000000000000000000000000000000000000000000000081526004018080602001828103825260158152602001807f7377617020616c726561647920726566756e646564000000000000000000000081525060200191505060405180910390fd5b83600073ffffffffffffffffffffffffffffffffffffffff1660008083815260200190815260200160002060000160009054906101000a900473ffffffffffffffffffffffffffffffffffffffff1673ffffffffffffffffffffffffffffffffffffffff16141561053f576040517f08c379a00000000000000000000000000000000000000000000000000000000081526004018080602001828103825260158152602001807f73776170496420646f6573206e6f74206578697374000000000000000000000081525060200191505060405180910390fd5b3373ffffffffffffffffffffffffffffffffffffffff1660008087815260200190815260200160002060010160009054906101000a900473ffffffffffffffffffffffffffffffffffffffff1673ffffffffffffffffffffffffffffffffffffffff1614610615576040517f08c379a000000000000000000000000000000000000000000000000000000000815260040180806020018281038252600c8152602001807f6e6f74207265636569766572000000000000000000000000000000000000000081525060200191505060405180910390fd5b6002846040516020018082805190602001908083835b6020831061064e578051825260208201915060208101905060208303925061062b565b6001836020036101000a0380198251168184511680821785525050505050509050019150506040516020818303038152906040526040518082805190602001908083835b602083106106b55780518252602082019150602081019050602083039250610692565b6001836020036101000a038019825116818451168082178552505050505050905001915050602060405180830381855afa1580156106f7573d6000803e3d6000fd5b5050506040513d602081101561070c57600080fd5b810190808051906020019092919050505060008087815260200190815260200160002060040154146107a6576040517f08c379a00000000000000000000000000000000000000000000000000000000081526004018080602001828103825260208152602001807f686173686c6f636b20616e642073656372657420646f206e6f74206d6174636881525060200191505060405180910390fd5b42600080878152602001908152602001600020600601541015610831576040517f08c379a00000000000000000000000000000000000000000000000000000000081526004018080602001828103825260188152602001807f74696d656c6f636b2074696d652068617320706173736564000000000000000081525060200191505060405180910390fd5b600080600087815260200190815260200160002090508060020160009054906101000a900473ffffffffffffffffffffffffffffffffffffffff1673ffffffffffffffffffffffffffffffffffffffff1663a9059cbb8260010160009054906101000a900473ffffffffffffffffffffffffffffffffffffffff1683600301546040518363ffffffff1660e01b8152600401808373ffffffffffffffffffffffffffffffffffffffff16815260200182815260200192505050602060405180830381600087803b15801561090457600080fd5b505af1158015610918573d6000803e3d6000fd5b505050506040513d602081101561092e57600080fd5b81019080805190602001909291905050505084816005019080519060200190610958929190611904565b5060018160070160006101000a81548160ff021916908315150217905550857f90cf0587640fa7c65a61e56f5a7a7cba86bf0a218edea64379b93e13580e7fc4866040518080602001828103825283818151815260200191508051906020019080838360005b838110156109d95780820151818401526020810190506109be565b50505050905090810190601f168015610a065780820380516001836020036101000a031916815260200191505b509250505060405180910390a26001935050505092915050565b60008060008060006060600080600089600073ffffffffffffffffffffffffffffffffffffffff1660008083815260200190815260200160002060000160009054906101000a900473ffffffffffffffffffffffffffffffffffffffff1673ffffffffffffffffffffffffffffffffffffffff161415610b08576040517f08c379a00000000000000000000000000000000000000000000000000000000081526004018080602001828103825260158152602001807f73776170496420646f6573206e6f74206578697374000000000000000000000081525060200191505060405180910390fd5b60008060008d815260200190815260200160002090508060000160009054906101000a900473ffffffffffffffffffffffffffffffffffffffff168160010160009054906101000a900473ffffffffffffffffffffffffffffffffffffffff168260020160009054906101000a900473ffffffffffffffffffffffffffffffffffffffff16836003015484600401548560050186600601548760070160009054906101000a900460ff168860070160019054906101000a900460ff16838054600181600116156101000203166002900480601f016020809104026020016040519081016040528092919081815260200182805460018160011615610100020316600290048015610c595780601f10610c2e57610100808354040283529160200191610c59565b820191906000526020600020905b815481529060010190602001808311610c3c57829003601f168201915b505050505093509a509a509a509a509a509a509a509a509a5050509193959799909294969850565b6000816000151560008083815260200190815260200160002060070160009054906101000a900460ff16151514610d20576040517f08c379a00000000000000000000000000000000000000000000000000000000081526004018080602001828103825260148152602001807f7377617020616c726561647920636c61696d656400000000000000000000000081525060200191505060405180910390fd5b6000151560008083815260200190815260200160002060070160019054906101000a900460ff16151514610dbc576040517f08c379a00000000000000000000000000000000000000000000000000000000081526004018080602001828103825260158152602001807f7377617020616c726561647920726566756e646564000000000000000000000081525060200191505060405180910390fd5b82600073ffffffffffffffffffffffffffffffffffffffff1660008083815260200190815260200160002060000160009054906101000a900473ffffffffffffffffffffffffffffffffffffffff1673ffffffffffffffffffffffffffffffffffffffff161415610e95576040517f08c379a00000000000000000000000000000000000000000000000000000000081526004018080602001828103825260158152602001807f73776170496420646f6573206e6f74206578697374000000000000000000000081525060200191505060405180910390fd5b3373ffffffffffffffffffffffffffffffffffffffff1660008086815260200190815260200160002060000160009054906101000a900473ffffffffffffffffffffffffffffffffffffffff1673ffffffffffffffffffffffffffffffffffffffff1614610f6b576040517f08c379a000000000000000000000000000000000000000000000000000000000815260040180806020018281038252600a8152602001807f6e6f742073656e6465720000000000000000000000000000000000000000000081525060200191505060405180910390fd5b426000808681526020019081526020016000206006015410610ff5576040517f08c379a00000000000000000000000000000000000000000000000000000000081526004018080602001828103825260158152602001807f74696d656c6f636b207374696c6c20616374697665000000000000000000000081525060200191505060405180910390fd5b600080600086815260200190815260200160002090508060020160009054906101000a900473ffffffffffffffffffffffffffffffffffffffff1673ffffffffffffffffffffffffffffffffffffffff1663a9059cbb8260000160009054906101000a900473ffffffffffffffffffffffffffffffffffffffff1683600301546040518363ffffffff1660e01b8152600401808373ffffffffffffffffffffffffffffffffffffffff16815260200182815260200192505050602060405180830381600087803b1580156110c857600080fd5b505af11580156110dc573d6000803e3d6000fd5b505050506040513d60208110156110f257600080fd5b81019080805190602001909291905050505060018160070160016101000a81548160ff021916908315150217905550847ffb5d3f0aa0cba05f52d3654cbe6db43991aa08412e34a9514bba17d963111eb460405160405180910390a260019350505050919050565b6000818573ffffffffffffffffffffffffffffffffffffffff1663dd62ed3e33306040518363ffffffff1660e01b8152600401808373ffffffffffffffffffffffffffffffffffffffff1681526020018273ffffffffffffffffffffffffffffffffffffffff1681526020019250505060206040518083038186803b1580156111e257600080fd5b505afa1580156111f6573d6000803e3d6000fd5b505050506040513d602081101561120c57600080fd5b81019080805190602001909291905050501015611274576040517f08c379a00000000000000000000000000000000000000000000000000000000081526004018080602001828103825260278152602001806119a26027913960400191505060405180910390fd5b4283116112e9576040517f08c379a000000000000000000000000000000000000000000000000000000000815260040180806020018281038252601e8152602001807f74696d656c6f636b206d75737420626520696e2074686520667574757265000081525060200191505060405180910390fd5b6000821161135f576040517f08c379a00000000000000000000000000000000000000000000000000000000081526004018080602001828103825260188152602001807f746f6b656e20616d6f756e74206d757374206265203e2030000000000000000081525060200191505060405180910390fd5b6002338787878787604051602001808773ffffffffffffffffffffffffffffffffffffffff1660601b81526014018673ffffffffffffffffffffffffffffffffffffffff1660601b81526014018573ffffffffffffffffffffffffffffffffffffffff1660601b815260140184815260200183815260200182815260200196505050505050506040516020818303038152906040526040518082805190602001908083835b602083106114275780518252602082019150602081019050602083039250611404565b6001836020036101000a038019825116818451168082178552505050505050905001915050602060405180830381855afa158015611469573d6000803e3d6000fd5b5050506040513d602081101561147e57600080fd5b81019080805190602001909291905050509050600073ffffffffffffffffffffffffffffffffffffffff1660008083815260200190815260200160002060000160009054906101000a900473ffffffffffffffffffffffffffffffffffffffff1673ffffffffffffffffffffffffffffffffffffffff161461154b576040517f08c379a000000000000000000000000000000000000000000000000000000000815260040180806020018281038252604f8152602001806119c9604f913960600191505060405180910390fd5b8473ffffffffffffffffffffffffffffffffffffffff166323b872dd3330856040518463ffffffff1660e01b8152600401808473ffffffffffffffffffffffffffffffffffffffff1681526020018373ffffffffffffffffffffffffffffffffffffffff1681526020018281526020019350505050602060405180830381600087803b1580156115da57600080fd5b505af11580156115ee573d6000803e3d6000fd5b505050506040513d602081101561160457600080fd5b810190808051906020019092919050505061166a576040517f08c379a0000000000000000000000000000000000000000000000000000000008152600401808060200182810382526022815260200180611a186022913960400191505060405180910390fd5b6040518061012001604052803373ffffffffffffffffffffffffffffffffffffffff1681526020018773ffffffffffffffffffffffffffffffffffffffff1681526020018673ffffffffffffffffffffffffffffffffffffffff1681526020018381526020018581526020016040518060200160405280600081525081526020018481526020016000151581526020016000151581525060008083815260200190815260200160002060008201518160000160006101000a81548173ffffffffffffffffffffffffffffffffffffffff021916908373ffffffffffffffffffffffffffffffffffffffff16021790555060208201518160010160006101000a81548173ffffffffffffffffffffffffffffffffffffffff021916908373ffffffffffffffffffffffffffffffffffffffff16021790555060408201518160020160006101000a81548173ffffffffffffffffffffffffffffffffffffffff021916908373ffffffffffffffffffffffffffffffffffffffff160217905550606082015181600301556080820151816004015560a0820151816005019080519060200190611818929190611904565b5060c0820151816006015560e08201518160070160006101000a81548160ff0219169083151502179055506101008201518160070160016101000a81548160ff0219169083151502179055509050508573ffffffffffffffffffffffffffffffffffffffff163373ffffffffffffffffffffffffffffffffffffffff16827f3fa709a0311217edaeaea55c71df90ea8dd060114921fe83fa18b1feb4e1945788868989604051808573ffffffffffffffffffffffffffffffffffffffff16815260200184815260200183815260200182815260200194505050505060405180910390a495945050505050565b828054600181600116156101000203166002900490600052602060002090601f016020900481019282601f1061194557805160ff1916838001178555611973565b82800160010185558215611973579182015b82811115611972578251825591602001919060010190611957565b5b5090506119809190611984565b5090565b5b8082111561199d576000816000905550600101611985565b509056fe746f6b656e20616c6c6f77616e6365206d757374206265203e3d20746f6b656e20616d6f756e74436f6e747261637420616c7265616479206578697374732c2075736520646966666572656e7420706172616d65746572732c20696465616c6c79206120646966666572656e7420686173686c6f636b7472616e7366657246726f6d2073656e64657220746f2074686973206661696c6564a2646970667358221220cfcd11ed375b1e4f6b00ee1fd9ac3f77a8cb59dc862a7a0cf3afa35862aa3a3964736f6c634300060c0033",
  "immutableReferences": {},
  "source": "//\"SPDX-License-Identifier: UNLICENSED\"\r\n\r\npragma solidity ^0.6.0;\r\n\r\nimport \"@openzeppelin/contracts/token/ERC20/ERC20.sol\";\r\n\r\ncontract HashedTimelockERC20 {\r\n    \r\n    event newSwap(\r\n        bytes32 indexed swapId,\r\n        address indexed sender,\r\n        address indexed receiver,\r\n        address tokenContract,\r\n        uint256 tokenAmount,\r\n        bytes32 hashlock,\r\n        uint256 timelock\r\n    );\r\n\r\n    event claimedSwap(bytes32 indexed swapId, string secret);\r\n\r\n    event refundedSwap(bytes32 indexed swapId);\r\n\r\n    struct Swap{\r\n        address sender;\r\n        address receiver;\r\n        address tokenContract;\r\n        uint256 tokenAmount;\r\n        bytes32 hashlock;\r\n        string secret;\r\n        uint256 timelock;\r\n        bool claimed;\r\n        bool refunded;\r\n    }\r\n\r\n    mapping(bytes32 => Swap) storedSwaps;\r\n\r\n    modifier swapExists(bytes32 _swapId) {\r\n        require(storedSwaps[_swapId].sender != address(0), \"swapId does not exist\");\r\n        _;\r\n    }\r\n\r\n    modifier contractNeitherClaimedNorRefunded(bytes32 _swapId) {\r\n        require(storedSwaps[_swapId].claimed == false, \"swap already claimed\");\r\n        require(storedSwaps[_swapId].refunded == false, \"swap already refunded\");\r\n        _;\r\n    }\r\n\r\n    // Set a swap with the receiver, the ERC20 token contract, a sha256 hashed secret, a timelock and the token amount\r\n    function setSwap(\r\n        address _receiver, \r\n        address _tokenContract, \r\n        bytes32 _hashlock,\r\n        uint256 _timelock, \r\n        uint256 _tokenAmount\r\n    ) external returns(bytes32 swapId) {\r\n        require(ERC20(_tokenContract).allowance(msg.sender, address(this)) >= _tokenAmount, \"token allowance must be >= token amount\");\r\n        require(_timelock > block.timestamp, \"timelock must be in the future\");\r\n        require(_tokenAmount > 0, \"token amount must be > 0\");\r\n\r\n        swapId = sha256(abi.encodePacked(msg.sender, _receiver, _tokenContract, _hashlock, _timelock, _tokenAmount));\r\n\r\n        if(storedSwaps[swapId].sender != address(0)){\r\n            revert(\"Contract already exists, use different parameters, ideally a different hashlock\");\r\n        }\r\n\r\n        if(!ERC20(_tokenContract).transferFrom(msg.sender, address(this), _tokenAmount)) {\r\n            revert(\"transferFrom sender to this failed\");\r\n        }\r\n\r\n        storedSwaps[swapId] = Swap(\r\n            msg.sender, \r\n            _receiver,\r\n            _tokenContract,\r\n            _tokenAmount,\r\n            _hashlock,\r\n            \"\",\r\n            _timelock,\r\n            false,\r\n            false\r\n        );\r\n\r\n        emit newSwap(\r\n            swapId,\r\n            msg.sender,\r\n            _receiver,\r\n            _tokenContract,\r\n            _tokenAmount,\r\n            _hashlock,\r\n            _timelock\r\n        );\r\n    }\r\n\r\n    // Claim the swap with the id and the secrect within the timelock\r\n    function claim(bytes32 _swapId, string memory _secret)\r\n        external\r\n        contractNeitherClaimedNorRefunded(_swapId)\r\n        swapExists(_swapId) \r\n        returns (bool)\r\n    {\r\n        require(storedSwaps[_swapId].receiver == msg.sender, \"not receiver\");\r\n        require(storedSwaps[_swapId].hashlock == sha256(abi.encodePacked(_secret)), \"hashlock and secret do not match\");\r\n        require(storedSwaps[_swapId].timelock >= block.timestamp, \"timelock time has passed\");\r\n\r\n        Swap storage a = storedSwaps[_swapId];\r\n        ERC20(a.tokenContract).transfer(a.receiver, a.tokenAmount);\r\n        a.secret = _secret;\r\n        a.claimed = true;\r\n\r\n        emit claimedSwap(_swapId, _secret);\r\n        return true;\r\n    }\r\n\r\n    // Refund the swap contract with the swap id after the timelock expires\r\n    function refund(bytes32 _swapId)\r\n        external\r\n        contractNeitherClaimedNorRefunded(_swapId)\r\n        swapExists(_swapId) \r\n        returns (bool) \r\n    {\r\n        require(storedSwaps[_swapId].sender == msg.sender, \"not sender\");\r\n        require(storedSwaps[_swapId].timelock < block.timestamp, \"timelock still active\");\r\n\r\n        Swap storage a = storedSwaps[_swapId];\r\n        ERC20(a.tokenContract).transfer(a.sender, a.tokenAmount);\r\n        a.refunded = true;\r\n\r\n        emit refundedSwap(_swapId);\r\n        return true;\r\n    }\r\n\r\n    // Return the swap parameters\r\n    function getSwap(bytes32 _swapId) \r\n        public\r\n        view   \r\n        swapExists(_swapId) \r\n        returns(\r\n            address sender,\r\n            address receiver,\r\n            address tokenContract,\r\n            uint256 tokenAmount,\r\n            bytes32 hashlock,\r\n            string memory secret,\r\n            uint256 timelock,\r\n            bool claimed,\r\n            bool refunded\r\n        ) \r\n    {\r\n       Swap storage a = storedSwaps[_swapId];\r\n       return (\r\n           a.sender,\r\n           a.receiver,\r\n           a.tokenContract,\r\n           a.tokenAmount,\r\n           a.hashlock,\r\n           a.secret,\r\n           a.timelock,\r\n           a.claimed,\r\n           a.refunded\r\n       ); \r\n    }\r\n\r\n}",
  "sourcePath": "/Users/maxi/Library/Mobile Documents/com~apple~CloudDocs/Documents/Studium/5. Semester/Projektseminar/Solidity/cross-blockchain-token-swap/contracts/HashedTimelockERC20.sol",
  "compiler": {
    "name": "solc",
    "version": "0.6.12+commit.27d51765.Emscripten.clang"
  },
  "schemaVersion": "3.2.5",
  "updatedAt": "2021-02-12T13:59:05.933Z",
  "networkType": "ethereum",
  "devdoc": {
    "kind": "dev",
    "methods": {},
    "version": 1
  },
  "userdoc": {
    "kind": "user",
    "methods": {},
    "version": 1
  }
}